{
  "_format": "hh-sol-artifact-1",
  "contractName": "Gaming",
  "sourceName": "contracts/Gaming.sol",
  "abi": [
    {
      "inputs": [],
      "stateMutability": "payable",
      "type": "constructor"
    },
    {
      "anonymous": false,
      "inputs": [
        {
          "indexed": false,
          "internalType": "address",
          "name": "funder",
          "type": "address"
        },
        {
          "indexed": false,
          "internalType": "uint256",
          "name": "amount",
          "type": "uint256"
        }
      ],
      "name": "GameFunded",
      "type": "event"
    },
    {
      "anonymous": false,
      "inputs": [
        {
          "indexed": false,
          "internalType": "address",
          "name": "player",
          "type": "address"
        },
        {
          "indexed": false,
          "internalType": "uint256",
          "name": "amount",
          "type": "uint256"
        },
        {
          "indexed": false,
          "internalType": "uint256",
          "name": "mysteryNumber",
          "type": "uint256"
        },
        {
          "indexed": false,
          "internalType": "uint256",
          "name": "displayedNumber",
          "type": "uint256"
        }
      ],
      "name": "PlayerLost",
      "type": "event"
    },
    {
      "anonymous": false,
      "inputs": [
        {
          "indexed": false,
          "internalType": "address",
          "name": "player",
          "type": "address"
        },
        {
          "indexed": false,
          "internalType": "uint256",
          "name": "amount",
          "type": "uint256"
        },
        {
          "indexed": false,
          "internalType": "uint256",
          "name": "mysteryNumber",
          "type": "uint256"
        },
        {
          "indexed": false,
          "internalType": "uint256",
          "name": "displayedNumber",
          "type": "uint256"
        }
      ],
      "name": "PlayerWon",
      "type": "event"
    },
    {
      "anonymous": false,
      "inputs": [
        {
          "indexed": false,
          "internalType": "uint256",
          "name": "wager",
          "type": "uint256"
        },
        {
          "indexed": false,
          "internalType": "uint256",
          "name": "playerNumber",
          "type": "uint256"
        },
        {
          "indexed": false,
          "internalType": "uint256",
          "name": "mysteryNumber",
          "type": "uint256"
        },
        {
          "indexed": false,
          "internalType": "bool",
          "name": "guess",
          "type": "bool"
        },
        {
          "indexed": false,
          "internalType": "string",
          "name": "result",
          "type": "string"
        }
      ],
      "name": "RoundComplete",
      "type": "event"
    },
    {
      "inputs": [
        {
          "internalType": "uint256",
          "name": "mysteryNumber",
          "type": "uint256"
        },
        {
          "internalType": "uint256",
          "name": "myNumber",
          "type": "uint256"
        },
        {
          "internalType": "bool",
          "name": "guess",
          "type": "bool"
        }
      ],
      "name": "determineWinner",
      "outputs": [
        {
          "internalType": "bool",
          "name": "",
          "type": "bool"
        }
      ],
      "stateMutability": "pure",
      "type": "function"
    },
    {
      "inputs": [],
      "name": "fundGame",
      "outputs": [],
      "stateMutability": "payable",
      "type": "function"
    },
    {
      "inputs": [],
      "name": "getLosses",
      "outputs": [
        {
          "internalType": "uint256",
          "name": "",
          "type": "uint256"
        }
      ],
      "stateMutability": "payable",
      "type": "function"
    },
    {
      "inputs": [],
      "name": "getWins",
      "outputs": [
        {
          "internalType": "uint256",
          "name": "",
          "type": "uint256"
        }
      ],
      "stateMutability": "payable",
      "type": "function"
    },
    {
      "inputs": [],
      "name": "losses",
      "outputs": [
        {
          "internalType": "uint256",
          "name": "",
          "type": "uint256"
        }
      ],
      "stateMutability": "view",
      "type": "function"
    },
    {
      "inputs": [],
      "name": "owner",
      "outputs": [
        {
          "internalType": "address payable",
          "name": "",
          "type": "address"
        }
      ],
      "stateMutability": "view",
      "type": "function"
    },
    {
      "inputs": [
        {
          "internalType": "address",
          "name": "",
          "type": "address"
        }
      ],
      "name": "players",
      "outputs": [
        {
          "internalType": "uint256",
          "name": "wins",
          "type": "uint256"
        },
        {
          "internalType": "uint256",
          "name": "losses",
          "type": "uint256"
        }
      ],
      "stateMutability": "view",
      "type": "function"
    },
    {
      "inputs": [
        {
          "internalType": "uint256",
          "name": "display",
          "type": "uint256"
        },
        {
          "internalType": "bool",
          "name": "guess",
          "type": "bool"
        }
      ],
      "name": "winOrLose",
      "outputs": [
        {
          "internalType": "bool",
          "name": "",
          "type": "bool"
        },
        {
          "internalType": "uint256",
          "name": "",
          "type": "uint256"
        }
      ],
      "stateMutability": "payable",
      "type": "function"
    },
    {
      "inputs": [],
      "name": "wins",
      "outputs": [
        {
          "internalType": "uint256",
          "name": "",
          "type": "uint256"
        }
      ],
      "stateMutability": "view",
      "type": "function"
    },
    {
      "inputs": [],
      "name": "withdrawFunds",
      "outputs": [],
      "stateMutability": "nonpayable",
      "type": "function"
    }
  ],
  "bytecode": "0x6080604052336000806101000a81548173ffffffffffffffffffffffffffffffffffffffff021916908373ffffffffffffffffffffffffffffffffffffffff1602179055506001600060146101000a81548160ff02191690831515021790555060006001819055506000600281905550610e2e8061007e6000396000f3fe6080604052600436106100915760003560e01c80638da5cb5b116100595780638da5cb5b1461015e578063c3aabf2d14610189578063e169bf6c146101a7578063e2eb41ff146101b1578063fc541ef3146101ef57610091565b8063171273a51461009657806324600fc3146100d357806324de908d146100ea57806335e1983e146101155780636f22d6a514610133575b600080fd5b3480156100a257600080fd5b506100bd60048036038101906100b891906107c4565b610220565b6040516100ca9190610826565b60405180910390f35b3480156100df57600080fd5b506100e861028b565b005b3480156100f657600080fd5b506100ff610362565b60405161010c9190610850565b60405180910390f35b61011d610368565b60405161012a9190610850565b60405180910390f35b34801561013f57600080fd5b50610148610372565b6040516101559190610850565b60405180910390f35b34801561016a57600080fd5b50610173610378565b60405161018091906108ac565b60405180910390f35b61019161039c565b60405161019e9190610850565b60405180910390f35b6101af6103a6565b005b3480156101bd57600080fd5b506101d860048036038101906101d39190610905565b61046f565b6040516101e6929190610932565b60405180910390f35b6102096004803603810190610204919061095b565b610493565b60405161021792919061099b565b60405180910390f35b60006001151582151503610254578383111561023f5760019050610284565b83831161024f5760009050610284565b610283565b600015158215150361028257828411156102715760019050610284565b8284116102815760009050610284565b5b5b5b9392505050565b60008054906101000a900473ffffffffffffffffffffffffffffffffffffffff1673ffffffffffffffffffffffffffffffffffffffff163373ffffffffffffffffffffffffffffffffffffffff1614610319576040517f08c379a000000000000000000000000000000000000000000000000000000000815260040161031090610a47565b60405180910390fd5b3373ffffffffffffffffffffffffffffffffffffffff166108fc479081150290604051600060405180830381858888f1935050505015801561035f573d6000803e3d6000fd5b50565b60015481565b6000600254905090565b60025481565b60008054906101000a900473ffffffffffffffffffffffffffffffffffffffff1681565b6000600154905090565b60008054906101000a900473ffffffffffffffffffffffffffffffffffffffff1673ffffffffffffffffffffffffffffffffffffffff163373ffffffffffffffffffffffffffffffffffffffff1614610434576040517f08c379a000000000000000000000000000000000000000000000000000000000815260040161042b90610a47565b60405180910390fd5b7f5c963fd7fde519af29d56159e6e3e18db4e5d3e4716c39c87958cf9e4862ed583334604051610465929190610a76565b60405180910390a1565b60036020528060005260406000206000915090508060000154908060010154905082565b60008060011515600060149054906101000a900460ff161515146104ec576040517f08c379a00000000000000000000000000000000000000000000000000000000081526004016104e390610aeb565b60405180910390fd5b343373ffffffffffffffffffffffffffffffffffffffff163111610545576040517f08c379a000000000000000000000000000000000000000000000000000000000815260040161053c90610b57565b60405180910390fd5b600061054f61071c565b9050600061055e828787610220565b90506000600360003373ffffffffffffffffffffffffffffffffffffffff1673ffffffffffffffffffffffffffffffffffffffff168152602001908152602001600020905060011515821515036106835760018160000160008282546105c49190610ba6565b9250508190555060018060008282546105dd9190610ba6565b925050819055503373ffffffffffffffffffffffffffffffffffffffff166108fc60023461060b9190610bda565b9081150290604051600060405180830381858888f19350505050158015610636573d6000803e3d6000fd5b507f05bb7924248cee9db500cb69e17c14e314413ba322759d375d60e1cbbff780903488858960405161066c9493929190610c68565b60405180910390a160018394509450505050610715565b60001515821515036107115760018160010160008282546106a49190610ba6565b925050819055506001600260008282546106be9190610ba6565b925050819055507f05bb7924248cee9db500cb69e17c14e314413ba322759d375d60e1cbbff78090348885896040516106fa9493929190610d0c565b60405180910390a160008394509450505050610715565b5050505b9250929050565b6000806001600a6001436107309190610d64565b4060001c61073e9190610dc7565b6107489190610ba6565b90508091505090565b600080fd5b6000819050919050565b61076981610756565b811461077457600080fd5b50565b60008135905061078681610760565b92915050565b60008115159050919050565b6107a18161078c565b81146107ac57600080fd5b50565b6000813590506107be81610798565b92915050565b6000806000606084860312156107dd576107dc610751565b5b60006107eb86828701610777565b93505060206107fc86828701610777565b925050604061080d868287016107af565b9150509250925092565b6108208161078c565b82525050565b600060208201905061083b6000830184610817565b92915050565b61084a81610756565b82525050565b60006020820190506108656000830184610841565b92915050565b600073ffffffffffffffffffffffffffffffffffffffff82169050919050565b60006108968261086b565b9050919050565b6108a68161088b565b82525050565b60006020820190506108c1600083018461089d565b92915050565b60006108d28261086b565b9050919050565b6108e2816108c7565b81146108ed57600080fd5b50565b6000813590506108ff816108d9565b92915050565b60006020828403121561091b5761091a610751565b5b6000610929848285016108f0565b91505092915050565b60006040820190506109476000830185610841565b6109546020830184610841565b9392505050565b6000806040838503121561097257610971610751565b5b600061098085828601610777565b9250506020610991858286016107af565b9150509250929050565b60006040820190506109b06000830185610817565b6109bd6020830184610841565b9392505050565b600082825260208201905092915050565b7f4f6e6c79206f776e65722063616e2063616c6c20746869732066756e6374696f60008201527f6e00000000000000000000000000000000000000000000000000000000000000602082015250565b6000610a316021836109c4565b9150610a3c826109d5565b604082019050919050565b60006020820190508181036000830152610a6081610a24565b9050919050565b610a70816108c7565b82525050565b6000604082019050610a8b6000830185610a67565b610a986020830184610841565b9392505050565b7f5468652067616d65206973206e6f74206f6e6c696e6500000000000000000000600082015250565b6000610ad56016836109c4565b9150610ae082610a9f565b602082019050919050565b60006020820190508181036000830152610b0481610ac8565b9050919050565b7f496e73756666696369656e742066756e64730000000000000000000000000000600082015250565b6000610b416012836109c4565b9150610b4c82610b0b565b602082019050919050565b60006020820190508181036000830152610b7081610b34565b9050919050565b7f4e487b7100000000000000000000000000000000000000000000000000000000600052601160045260246000fd5b6000610bb182610756565b9150610bbc83610756565b9250828201905080821115610bd457610bd3610b77565b5b92915050565b6000610be582610756565b9150610bf083610756565b9250828202610bfe81610756565b91508282048414831517610c1557610c14610b77565b5b5092915050565b7f776f6e0000000000000000000000000000000000000000000000000000000000600082015250565b6000610c526003836109c4565b9150610c5d82610c1c565b602082019050919050565b600060a082019050610c7d6000830187610841565b610c8a6020830186610841565b610c976040830185610841565b610ca46060830184610817565b8181036080830152610cb581610c45565b905095945050505050565b7f6c6f737400000000000000000000000000000000000000000000000000000000600082015250565b6000610cf66004836109c4565b9150610d0182610cc0565b602082019050919050565b600060a082019050610d216000830187610841565b610d2e6020830186610841565b610d3b6040830185610841565b610d486060830184610817565b8181036080830152610d5981610ce9565b905095945050505050565b6000610d6f82610756565b9150610d7a83610756565b9250828203905081811115610d9257610d91610b77565b5b92915050565b7f4e487b7100000000000000000000000000000000000000000000000000000000600052601260045260246000fd5b6000610dd282610756565b9150610ddd83610756565b925082610ded57610dec610d98565b5b82820690509291505056fea26469706673582212204c5db923a5151dfb26ca12d1614294e60689475618cc61abba91651018c48f2064736f6c63430008120033",
  "linkReferences": {},
  "deployedLinkReferences": {}
}